:10000000020006020186787FE4F6D8FD75811B02A6
:10001000004D020160E493A3F8E493A34003F6804B
:1000200001F208DFF48029E493A3F85407240CC8F4
:10003000C333C4540F4420C8834004F4568001469F
:10004000F6DFE4800B010204081020408090017369
:10005000E47E019360BCA3FF543F30E509541FFECA
:10006000E493A360010ECF54C025E060A840B8E43B
:1000700093A3FAE493A3F8E493A3C8C582C8CAC5BE
:1000800083CAF0A3C8C582C8CAC583CADFE9DEE750
:1000900080BEBC000BBE0029EF8DF084FFADF022C6
:1000A000E4CCF875F008EF2FFFEE33FEEC33FCEEF6
:1000B0009DEC984005FCEE9DFE0FD5F0E9E4CEFDE9
:1000C00022EDF8F5F0EE8420D21CFEADF075F008BC
:1000D000EF2FFFED33FD4007985006D5F0F222C315
:1000E00098FD0FD5F0EA22AE08AF097C037DE81237
:1000F00000928F18AE08AF097C007D641200927CDC
:10010000007D0A1200928D19AE08AF097C007D0AAD
:100110001200927C007D0A1200928D1AAE08AF097F
:100120007C007D641200928D1B22E4FB740A2BF884
:10013000E6F59074182BF8E6240EF8E6F5A07F0497
:100140007E0012014DE4F5900BBB04E022E4FDEDCE
:10015000C39FE49E5009E4FC0CBC7CFC0D80F022A3
:10016000E4F508F509D288D2AFD2A81200E712014F
:100170002A80F80A0EC0F9A4B0999282F8809004FF
:100180000A0102040800C0E00509E509700205083B
:03019000D0E0328A
:00000001FF
